{
  "_format": "hh-sol-artifact-1",
  "contractName": "IdleBarnBridge",
  "sourceName": "contracts/wrappers/IdleBarnBridge.sol",
  "abi": [
    {
      "anonymous": false,
      "inputs": [
        {
          "indexed": true,
          "internalType": "address",
          "name": "previousOwner",
          "type": "address"
        },
        {
          "indexed": true,
          "internalType": "address",
          "name": "newOwner",
          "type": "address"
        }
      ],
      "name": "OwnershipTransferred",
      "type": "event"
    },
    {
      "constant": true,
      "inputs": [],
      "name": "availableLiquidity",
      "outputs": [
        {
          "internalType": "uint256",
          "name": "",
          "type": "uint256"
        }
      ],
      "payable": false,
      "stateMutability": "view",
      "type": "function"
    },
    {
      "constant": true,
      "inputs": [],
      "name": "compoundProvider",
      "outputs": [
        {
          "internalType": "address",
          "name": "",
          "type": "address"
        }
      ],
      "payable": false,
      "stateMutability": "view",
      "type": "function"
    },
    {
      "constant": true,
      "inputs": [],
      "name": "controller",
      "outputs": [
        {
          "internalType": "address",
          "name": "",
          "type": "address"
        }
      ],
      "payable": false,
      "stateMutability": "view",
      "type": "function"
    },
    {
      "constant": true,
      "inputs": [],
      "name": "getAPR",
      "outputs": [
        {
          "internalType": "uint256",
          "name": "",
          "type": "uint256"
        }
      ],
      "payable": false,
      "stateMutability": "view",
      "type": "function"
    },
    {
      "constant": true,
      "inputs": [],
      "name": "getPriceInToken",
      "outputs": [
        {
          "internalType": "uint256",
          "name": "",
          "type": "uint256"
        }
      ],
      "payable": false,
      "stateMutability": "view",
      "type": "function"
    },
    {
      "constant": true,
      "inputs": [],
      "name": "idleToken",
      "outputs": [
        {
          "internalType": "address",
          "name": "",
          "type": "address"
        }
      ],
      "payable": false,
      "stateMutability": "view",
      "type": "function"
    },
    {
      "constant": false,
      "inputs": [
        {
          "internalType": "address",
          "name": "_token",
          "type": "address"
        },
        {
          "internalType": "address",
          "name": "_idleToken",
          "type": "address"
        }
      ],
      "name": "initialize",
      "outputs": [],
      "payable": false,
      "stateMutability": "nonpayable",
      "type": "function"
    },
    {
      "constant": true,
      "inputs": [],
      "name": "initialized",
      "outputs": [
        {
          "internalType": "bool",
          "name": "",
          "type": "bool"
        }
      ],
      "payable": false,
      "stateMutability": "view",
      "type": "function"
    },
    {
      "constant": true,
      "inputs": [],
      "name": "isOwner",
      "outputs": [
        {
          "internalType": "bool",
          "name": "",
          "type": "bool"
        }
      ],
      "payable": false,
      "stateMutability": "view",
      "type": "function"
    },
    {
      "constant": false,
      "inputs": [],
      "name": "mint",
      "outputs": [
        {
          "internalType": "uint256",
          "name": "barnBridgeJuniorCusdc",
          "type": "uint256"
        }
      ],
      "payable": false,
      "stateMutability": "nonpayable",
      "type": "function"
    },
    {
      "constant": true,
      "inputs": [
        {
          "internalType": "uint256",
          "name": "_amount",
          "type": "uint256"
        }
      ],
      "name": "nextSupplyRate",
      "outputs": [
        {
          "internalType": "uint256",
          "name": "",
          "type": "uint256"
        }
      ],
      "payable": false,
      "stateMutability": "view",
      "type": "function"
    },
    {
      "constant": true,
      "inputs": [
        {
          "internalType": "uint256[]",
          "name": "",
          "type": "uint256[]"
        }
      ],
      "name": "nextSupplyRateWithParams",
      "outputs": [
        {
          "internalType": "uint256",
          "name": "",
          "type": "uint256"
        }
      ],
      "payable": false,
      "stateMutability": "view",
      "type": "function"
    },
    {
      "constant": true,
      "inputs": [],
      "name": "owner",
      "outputs": [
        {
          "internalType": "address",
          "name": "",
          "type": "address"
        }
      ],
      "payable": false,
      "stateMutability": "view",
      "type": "function"
    },
    {
      "constant": false,
      "inputs": [
        {
          "internalType": "address",
          "name": "_account",
          "type": "address"
        }
      ],
      "name": "redeem",
      "outputs": [
        {
          "internalType": "uint256",
          "name": "tokens",
          "type": "uint256"
        }
      ],
      "payable": false,
      "stateMutability": "nonpayable",
      "type": "function"
    },
    {
      "constant": false,
      "inputs": [],
      "name": "renounceOwnership",
      "outputs": [],
      "payable": false,
      "stateMutability": "nonpayable",
      "type": "function"
    },
    {
      "constant": true,
      "inputs": [],
      "name": "token",
      "outputs": [
        {
          "internalType": "address",
          "name": "",
          "type": "address"
        }
      ],
      "payable": false,
      "stateMutability": "view",
      "type": "function"
    },
    {
      "constant": false,
      "inputs": [
        {
          "internalType": "address",
          "name": "newOwner",
          "type": "address"
        }
      ],
      "name": "transferOwnership",
      "outputs": [],
      "payable": false,
      "stateMutability": "nonpayable",
      "type": "function"
    },
    {
      "constant": true,
      "inputs": [],
      "name": "underlying",
      "outputs": [
        {
          "internalType": "address",
          "name": "",
          "type": "address"
        }
      ],
      "payable": false,
      "stateMutability": "view",
      "type": "function"
    }
  ],
  "bytecode": "0x60806040527341ab25709e0c3edf027f6099963fe9ad3ebab3a3600460006101000a81548173ffffffffffffffffffffffffffffffffffffffff021916908373ffffffffffffffffffffffffffffffffffffffff16021790555073daa037f99d168b552c0c61b7fb64cf7819d78310600560006101000a81548173ffffffffffffffffffffffffffffffffffffffff021916908373ffffffffffffffffffffffffffffffffffffffff16021790555060006100be61016160201b60201c565b9050806000806101000a81548173ffffffffffffffffffffffffffffffffffffffff021916908373ffffffffffffffffffffffffffffffffffffffff1602179055508073ffffffffffffffffffffffffffffffffffffffff16600073ffffffffffffffffffffffffffffffffffffffff167f8be0079c531659141344cd1fd0a4f28419497f9722a3daafe3b4186f6b6457e060405160405180910390a350610169565b600033905090565b61294a806101786000396000f3fe608060405234801561001057600080fd5b50600436106101165760003560e01c80638f32d59b116100a2578063ccdd014911610071578063ccdd0149146102af578063f2fde38b146102df578063f71e47af146102fb578063f77c479114610319578063fc0c546a1461033757610116565b80638f32d59b1461021357806393fd92191461023157806395a2251f14610261578063c89d5b8b1461029157610116565b8063485cc955116100e9578063485cc955146101935780636f307dc3146101af578063715018a6146101cd57806374375359146101d75780638da5cb5b146101f557610116565b806302bbce461461011b5780631249c58b14610139578063158ef93e146101575780632dd60c5e14610175575b600080fd5b610123610355565b60405161013091906127b2565b60405180910390f35b610141610360565b60405161014e91906127b2565b60405180910390f35b61015f610764565b60405161016c9190612615565b60405180910390f35b61017d610777565b60405161018a91906125a8565b60405180910390f35b6101ad60048036036101a891908101906120a6565b61079d565b005b6101b7610aa6565b6040516101c491906125a8565b60405180910390f35b6101d5610acc565b005b6101df610bd2565b6040516101ec91906127b2565b60405180910390f35b6101fd610ca6565b60405161020a91906125a8565b60405180910390f35b61021b610ccf565b6040516102289190612615565b60405180910390f35b61024b600480360361024691908101906120e2565b610d2d565b60405161025891906127b2565b60405180910390f35b61027b6004803603610276919081019061207d565b610d38565b60405161028891906127b2565b60405180910390f35b6102996110b4565b6040516102a691906127b2565b60405180910390f35b6102c960048036036102c49190810190612150565b6110bc565b6040516102d691906127b2565b60405180910390f35b6102f960048036036102f4919081019061207d565b6110c6565b005b610303611119565b60405161031091906125a8565b60405180910390f35b61032161113f565b60405161032e91906125a8565b60405180910390f35b61033f611165565b60405161034c91906125a8565b60405180910390f35b6000620f4240905090565b6000600360009054906101000a900473ffffffffffffffffffffffffffffffffffffffff1673ffffffffffffffffffffffffffffffffffffffff163373ffffffffffffffffffffffffffffffffffffffff16146103f2576040517f08c379a00000000000000000000000000000000000000000000000000000000081526004016103e990612652565b60405180910390fd5b6000600260009054906101000a900473ffffffffffffffffffffffffffffffffffffffff1673ffffffffffffffffffffffffffffffffffffffff166370a08231306040518263ffffffff1660e01b815260040161044f91906125a8565b60206040518083038186803b15801561046757600080fd5b505afa15801561047b573d6000803e3d6000fd5b505050506040513d601f19601f8201168201806040525061049f9190810190612179565b905060008114156104b35781915050610761565b60006104be8261118b565b9050610530600560009054906101000a900473ffffffffffffffffffffffffffffffffffffffff166000600260009054906101000a900473ffffffffffffffffffffffffffffffffffffffff1673ffffffffffffffffffffffffffffffffffffffff166114729092919063ffffffff16565b6105bf600560009054906101000a900473ffffffffffffffffffffffffffffffffffffffff167fffffffffffffffffffffffffffffffffffffffffffffffffffffffffffffffff600260009054906101000a900473ffffffffffffffffffffffffffffffffffffffff1673ffffffffffffffffffffffffffffffffffffffff166114729092919063ffffffff16565b600160009054906101000a900473ffffffffffffffffffffffffffffffffffffffff1673ffffffffffffffffffffffffffffffffffffffff1663a4ce25a78383610614610e10426115e990919063ffffffff16565b6040518463ffffffff1660e01b8152600401610632939291906127cd565b600060405180830381600087803b15801561064c57600080fd5b505af1158015610660573d6000803e3d6000fd5b50505050600160009054906101000a900473ffffffffffffffffffffffffffffffffffffffff1673ffffffffffffffffffffffffffffffffffffffff166370a08231306040518263ffffffff1660e01b81526004016106bf91906125a8565b60206040518083038186803b1580156106d757600080fd5b505afa1580156106eb573d6000803e3d6000fd5b505050506040513d601f19601f8201168201806040525061070f9190810190612179565b925061075e3384600160009054906101000a900473ffffffffffffffffffffffffffffffffffffffff1673ffffffffffffffffffffffffffffffffffffffff1661163e9092919063ffffffff16565b50505b90565b600360149054906101000a900460ff1681565b600360009054906101000a900473ffffffffffffffffffffffffffffffffffffffff1681565b600360149054906101000a900460ff16156107ed576040517f08c379a00000000000000000000000000000000000000000000000000000000081526004016107e490612712565b60405180910390fd5b600073ffffffffffffffffffffffffffffffffffffffff168273ffffffffffffffffffffffffffffffffffffffff16141561085d576040517f08c379a000000000000000000000000000000000000000000000000000000000815260040161085490612732565b60405180910390fd5b81600160006101000a81548173ffffffffffffffffffffffffffffffffffffffff021916908373ffffffffffffffffffffffffffffffffffffffff1602179055508173ffffffffffffffffffffffffffffffffffffffff166316f0115b6040518163ffffffff1660e01b815260040160206040518083038186803b1580156108e457600080fd5b505afa1580156108f8573d6000803e3d6000fd5b505050506040513d601f19601f8201168201806040525061091c9190810190612179565b73ffffffffffffffffffffffffffffffffffffffff1663633156376040518163ffffffff1660e01b815260040160206040518083038186803b15801561096157600080fd5b505afa158015610975573d6000803e3d6000fd5b505050506040513d601f19601f820116820180604052506109999190810190612179565b600260006101000a81548173ffffffffffffffffffffffffffffffffffffffff021916908373ffffffffffffffffffffffffffffffffffffffff16021790555080600360006101000a81548173ffffffffffffffffffffffffffffffffffffffff021916908373ffffffffffffffffffffffffffffffffffffffff160217905550610a87827fffffffffffffffffffffffffffffffffffffffffffffffffffffffffffffffff600260009054906101000a900473ffffffffffffffffffffffffffffffffffffffff1673ffffffffffffffffffffffffffffffffffffffff166114729092919063ffffffff16565b6001600360146101000a81548160ff0219169083151502179055505050565b600260009054906101000a900473ffffffffffffffffffffffffffffffffffffffff1681565b610ad4610ccf565b610b13576040517f08c379a0000000000000000000000000000000000000000000000000000000008152600401610b0a906126f2565b60405180910390fd5b600073ffffffffffffffffffffffffffffffffffffffff166000809054906101000a900473ffffffffffffffffffffffffffffffffffffffff1673ffffffffffffffffffffffffffffffffffffffff167f8be0079c531659141344cd1fd0a4f28419497f9722a3daafe3b4186f6b6457e060405160405180910390a360008060006101000a81548173ffffffffffffffffffffffffffffffffffffffff021916908373ffffffffffffffffffffffffffffffffffffffff160217905550565b6000600260009054906101000a900473ffffffffffffffffffffffffffffffffffffffff1673ffffffffffffffffffffffffffffffffffffffff166370a08231600160009054906101000a900473ffffffffffffffffffffffffffffffffffffffff166040518263ffffffff1660e01b8152600401610c5191906125a8565b60206040518083038186803b158015610c6957600080fd5b505afa158015610c7d573d6000803e3d6000fd5b505050506040513d601f19601f82011682018060405250610ca19190810190612179565b905090565b60008060009054906101000a900473ffffffffffffffffffffffffffffffffffffffff16905090565b60008060009054906101000a900473ffffffffffffffffffffffffffffffffffffffff1673ffffffffffffffffffffffffffffffffffffffff16610d116116dd565b73ffffffffffffffffffffffffffffffffffffffff1614905090565b600080905092915050565b6000600360009054906101000a900473ffffffffffffffffffffffffffffffffffffffff1673ffffffffffffffffffffffffffffffffffffffff163373ffffffffffffffffffffffffffffffffffffffff1614610dca576040517f08c379a0000000000000000000000000000000000000000000000000000000008152600401610dc190612652565b60405180910390fd5b6000610e7f600160009054906101000a900473ffffffffffffffffffffffffffffffffffffffff1673ffffffffffffffffffffffffffffffffffffffff166370a08231306040518263ffffffff1660e01b8152600401610e2a91906125a8565b60206040518083038186803b158015610e4257600080fd5b505afa158015610e56573d6000803e3d6000fd5b505050506040513d601f19601f82011682018060405250610e7a9190810190612179565b6116e5565b9050600160009054906101000a900473ffffffffffffffffffffffffffffffffffffffff1673ffffffffffffffffffffffffffffffffffffffff1663709ef231600160009054906101000a900473ffffffffffffffffffffffffffffffffffffffff1673ffffffffffffffffffffffffffffffffffffffff166370a08231306040518263ffffffff1660e01b8152600401610f1a91906125a8565b60206040518083038186803b158015610f3257600080fd5b505afa158015610f46573d6000803e3d6000fd5b505050506040513d601f19601f82011682018060405250610f6a9190810190612179565b83610f80610e10426115e990919063ffffffff16565b6040518463ffffffff1660e01b8152600401610f9e939291906127cd565b600060405180830381600087803b158015610fb857600080fd5b505af1158015610fcc573d6000803e3d6000fd5b505050506000600260009054906101000a900473ffffffffffffffffffffffffffffffffffffffff1690508073ffffffffffffffffffffffffffffffffffffffff166370a08231306040518263ffffffff1660e01b815260040161103091906125a8565b60206040518083038186803b15801561104857600080fd5b505afa15801561105c573d6000803e3d6000fd5b505050506040513d601f19601f820116820180604052506110809190810190612179565b92506110ad84848373ffffffffffffffffffffffffffffffffffffffff1661163e9092919063ffffffff16565b5050919050565b600080905090565b6000809050919050565b6110ce610ccf565b61110d576040517f08c379a0000000000000000000000000000000000000000000000000000000008152600401611104906126f2565b60405180910390fd5b61111681611b34565b50565b600560009054906101000a900473ffffffffffffffffffffffffffffffffffffffff1681565b600460009054906101000a900473ffffffffffffffffffffffffffffffffffffffff1681565b600160009054906101000a900473ffffffffffffffffffffffffffffffffffffffff1681565b6000806112f1600160009054906101000a900473ffffffffffffffffffffffffffffffffffffffff1673ffffffffffffffffffffffffffffffffffffffff1663bbba205d6040518163ffffffff1660e01b815260040160206040518083038186803b1580156111f957600080fd5b505afa15801561120d573d6000803e3d6000fd5b505050506040513d601f19601f820116820180604052506112319190810190612179565b6112e3600460009054906101000a900473ffffffffffffffffffffffffffffffffffffffff1673ffffffffffffffffffffffffffffffffffffffff16634684129e6040518163ffffffff1660e01b815260040160206040518083038186803b15801561129c57600080fd5b505afa1580156112b0573d6000803e3d6000fd5b505050506040513d601f19601f820116820180604052506112d49190810190612179565b86611c6290919063ffffffff16565b611cd290919063ffffffff16565b905061146a600160009054906101000a900473ffffffffffffffffffffffffffffffffffffffff1673ffffffffffffffffffffffffffffffffffffffff1663a035b1fe6040518163ffffffff1660e01b8152600401602060405180830381600087803b15801561136057600080fd5b505af1158015611374573d6000803e3d6000fd5b505050506040513d601f19601f820116820180604052506113989190810190612179565b61145c600160009054906101000a900473ffffffffffffffffffffffffffffffffffffffff1673ffffffffffffffffffffffffffffffffffffffff1663bbba205d6040518163ffffffff1660e01b815260040160206040518083038186803b15801561140357600080fd5b505afa158015611417573d6000803e3d6000fd5b505050506040513d601f19601f8201168201806040525061143b9190810190612179565b61144e8588611d1c90919063ffffffff16565b611c6290919063ffffffff16565b611cd290919063ffffffff16565b915050919050565b600081148061150b575060008373ffffffffffffffffffffffffffffffffffffffff1663dd62ed3e30856040518363ffffffff1660e01b81526004016114b99291906125c3565b60206040518083038186803b1580156114d157600080fd5b505afa1580156114e5573d6000803e3d6000fd5b505050506040513d601f19601f820116820180604052506115099190810190612179565b145b61154a576040517f08c379a000000000000000000000000000000000000000000000000000000000815260040161154190612772565b60405180910390fd5b6115e4838473ffffffffffffffffffffffffffffffffffffffff1663095ea7b3905060e01b84846040516024016115829291906125ec565b604051602081830303815290604052907bffffffffffffffffffffffffffffffffffffffffffffffffffffffff19166020820180517bffffffffffffffffffffffffffffffffffffffffffffffffffffffff8381831617835250505050611d66565b505050565b600080828401905083811015611634576040517f08c379a000000000000000000000000000000000000000000000000000000000815260040161162b90612692565b60405180910390fd5b8091505092915050565b6116d8838473ffffffffffffffffffffffffffffffffffffffff1663a9059cbb905060e01b84846040516024016116769291906125ec565b604051602081830303815290604052907bffffffffffffffffffffffffffffffffffffffffffffffffffffffff19166020820180517bffffffffffffffffffffffffffffffffffffffffffffffffffffffff8381831617835250505050611d66565b505050565b600033905090565b60008061184b600160009054906101000a900473ffffffffffffffffffffffffffffffffffffffff1673ffffffffffffffffffffffffffffffffffffffff166318160ddd6040518163ffffffff1660e01b815260040160206040518083038186803b15801561175357600080fd5b505afa158015611767573d6000803e3d6000fd5b505050506040513d601f19601f8201168201806040525061178b9190810190612179565b61183d600160009054906101000a900473ffffffffffffffffffffffffffffffffffffffff1673ffffffffffffffffffffffffffffffffffffffff1663bbba205d6040518163ffffffff1660e01b815260040160206040518083038186803b1580156117f657600080fd5b505afa15801561180a573d6000803e3d6000fd5b505050506040513d601f19601f8201168201806040525061182e9190810190612179565b86611c6290919063ffffffff16565b611cd290919063ffffffff16565b905060006119b2600160009054906101000a900473ffffffffffffffffffffffffffffffffffffffff1673ffffffffffffffffffffffffffffffffffffffff1663bbba205d6040518163ffffffff1660e01b815260040160206040518083038186803b1580156118ba57600080fd5b505afa1580156118ce573d6000803e3d6000fd5b505050506040513d601f19601f820116820180604052506118f29190810190612179565b6119a484600160009054906101000a900473ffffffffffffffffffffffffffffffffffffffff1673ffffffffffffffffffffffffffffffffffffffff1663f7ea4adc6040518163ffffffff1660e01b815260040160206040518083038186803b15801561195e57600080fd5b505afa158015611972573d6000803e3d6000fd5b505050506040513d601f19601f820116820180604052506119969190810190612179565b611c6290919063ffffffff16565b611cd290919063ffffffff16565b9050611b2b81611b1d600160009054906101000a900473ffffffffffffffffffffffffffffffffffffffff1673ffffffffffffffffffffffffffffffffffffffff1663bbba205d6040518163ffffffff1660e01b815260040160206040518083038186803b158015611a2357600080fd5b505afa158015611a37573d6000803e3d6000fd5b505050506040513d601f19601f82011682018060405250611a5b9190810190612179565b611b0f600160009054906101000a900473ffffffffffffffffffffffffffffffffffffffff1673ffffffffffffffffffffffffffffffffffffffff1663a035b1fe6040518163ffffffff1660e01b8152600401602060405180830381600087803b158015611ac857600080fd5b505af1158015611adc573d6000803e3d6000fd5b505050506040513d601f19601f82011682018060405250611b009190810190612179565b89611c6290919063ffffffff16565b611cd290919063ffffffff16565b611d1c90919063ffffffff16565b92505050919050565b600073ffffffffffffffffffffffffffffffffffffffff168173ffffffffffffffffffffffffffffffffffffffff161415611ba4576040517f08c379a0000000000000000000000000000000000000000000000000000000008152600401611b9b90612672565b60405180910390fd5b8073ffffffffffffffffffffffffffffffffffffffff166000809054906101000a900473ffffffffffffffffffffffffffffffffffffffff1673ffffffffffffffffffffffffffffffffffffffff167f8be0079c531659141344cd1fd0a4f28419497f9722a3daafe3b4186f6b6457e060405160405180910390a3806000806101000a81548173ffffffffffffffffffffffffffffffffffffffff021916908373ffffffffffffffffffffffffffffffffffffffff16021790555050565b600080831415611c755760009050611ccc565b6000828402905082848281611c8657fe5b0414611cc7576040517f08c379a0000000000000000000000000000000000000000000000000000000008152600401611cbe906126d2565b60405180910390fd5b809150505b92915050565b6000611d1483836040518060400160405280601a81526020017f536166654d6174683a206469766973696f6e206279207a65726f000000000000815250611ed8565b905092915050565b6000611d5e83836040518060400160405280601e81526020017f536166654d6174683a207375627472616374696f6e206f766572666c6f770000815250611f39565b905092915050565b611d858273ffffffffffffffffffffffffffffffffffffffff16611f94565b611dc4576040517f08c379a0000000000000000000000000000000000000000000000000000000008152600401611dbb90612792565b60405180910390fd5b600060608373ffffffffffffffffffffffffffffffffffffffff1683604051611ded9190612591565b6000604051808303816000865af19150503d8060008114611e2a576040519150601f19603f3d011682016040523d82523d6000602084013e611e2f565b606091505b509150915081611e74576040517f08c379a0000000000000000000000000000000000000000000000000000000008152600401611e6b906126b2565b60405180910390fd5b600081511115611ed25780806020019051611e929190810190612127565b611ed1576040517f08c379a0000000000000000000000000000000000000000000000000000000008152600401611ec890612752565b60405180910390fd5b5b50505050565b60008083118290611f1f576040517f08c379a0000000000000000000000000000000000000000000000000000000008152600401611f169190612630565b60405180910390fd5b506000838581611f2b57fe5b049050809150509392505050565b6000838311158290611f81576040517f08c379a0000000000000000000000000000000000000000000000000000000008152600401611f789190612630565b60405180910390fd5b5060008385039050809150509392505050565b60008060007fc5d2460186f7233c927e7db2dcc703c0e500b653ca82273b7bfad8045d85a47060001b9050833f9150808214158015611fd657506000801b8214155b92505050919050565b600081359050611fee816128c2565b92915050565b60008083601f84011261200657600080fd5b8235905067ffffffffffffffff81111561201f57600080fd5b60208301915083602082028301111561203757600080fd5b9250929050565b60008151905061204d816128d9565b92915050565b600081359050612062816128f0565b92915050565b600081519050612077816128f0565b92915050565b60006020828403121561208f57600080fd5b600061209d84828501611fdf565b91505092915050565b600080604083850312156120b957600080fd5b60006120c785828601611fdf565b92505060206120d885828601611fdf565b9150509250929050565b600080602083850312156120f557600080fd5b600083013567ffffffffffffffff81111561210f57600080fd5b61211b85828601611ff4565b92509250509250929050565b60006020828403121561213957600080fd5b60006121478482850161203e565b91505092915050565b60006020828403121561216257600080fd5b600061217084828501612053565b91505092915050565b60006020828403121561218b57600080fd5b600061219984828501612068565b91505092915050565b6121ab81612836565b82525050565b6121ba81612848565b82525050565b60006121cb82612804565b6121d5818561281a565b93506121e581856020860161287e565b80840191505092915050565b60006121fc8261280f565b6122068185612825565b935061221681856020860161287e565b61221f816128b1565b840191505092915050565b6000612237602083612825565b91507f4f776e61626c653a2063616c6c6572206973206e6f742049646c65546f6b656e6000830152602082019050919050565b6000612277602683612825565b91507f4f776e61626c653a206e6577206f776e657220697320746865207a65726f206160008301527f64647265737300000000000000000000000000000000000000000000000000006020830152604082019050919050565b60006122dd601b83612825565b91507f536166654d6174683a206164646974696f6e206f766572666c6f7700000000006000830152602082019050919050565b600061231d602083612825565b91507f5361666545524332303a206c6f772d6c6576656c2063616c6c206661696c65646000830152602082019050919050565b600061235d602183612825565b91507f536166654d6174683a206d756c7469706c69636174696f6e206f766572666c6f60008301527f77000000000000000000000000000000000000000000000000000000000000006020830152604082019050919050565b60006123c3602083612825565b91507f4f776e61626c653a2063616c6c6572206973206e6f7420746865206f776e65726000830152602082019050919050565b6000612403601383612825565b91507f416c726561647920696e697469616c697a6564000000000000000000000000006000830152602082019050919050565b6000612443601083612825565b91507f63555344433a20616464722069732030000000000000000000000000000000006000830152602082019050919050565b6000612483602a83612825565b91507f5361666545524332303a204552433230206f7065726174696f6e20646964206e60008301527f6f742073756363656564000000000000000000000000000000000000000000006020830152604082019050919050565b60006124e9603683612825565b91507f5361666545524332303a20617070726f76652066726f6d206e6f6e2d7a65726f60008301527f20746f206e6f6e2d7a65726f20616c6c6f77616e6365000000000000000000006020830152604082019050919050565b600061254f601f83612825565b91507f5361666545524332303a2063616c6c20746f206e6f6e2d636f6e7472616374006000830152602082019050919050565b61258b81612874565b82525050565b600061259d82846121c0565b915081905092915050565b60006020820190506125bd60008301846121a2565b92915050565b60006040820190506125d860008301856121a2565b6125e560208301846121a2565b9392505050565b600060408201905061260160008301856121a2565b61260e6020830184612582565b9392505050565b600060208201905061262a60008301846121b1565b92915050565b6000602082019050818103600083015261264a81846121f1565b905092915050565b6000602082019050818103600083015261266b8161222a565b9050919050565b6000602082019050818103600083015261268b8161226a565b9050919050565b600060208201905081810360008301526126ab816122d0565b9050919050565b600060208201905081810360008301526126cb81612310565b9050919050565b600060208201905081810360008301526126eb81612350565b9050919050565b6000602082019050818103600083015261270b816123b6565b9050919050565b6000602082019050818103600083015261272b816123f6565b9050919050565b6000602082019050818103600083015261274b81612436565b9050919050565b6000602082019050818103600083015261276b81612476565b9050919050565b6000602082019050818103600083015261278b816124dc565b9050919050565b600060208201905081810360008301526127ab81612542565b9050919050565b60006020820190506127c76000830184612582565b92915050565b60006060820190506127e26000830186612582565b6127ef6020830185612582565b6127fc6040830184612582565b949350505050565b600081519050919050565b600081519050919050565b600081905092915050565b600082825260208201905092915050565b600061284182612854565b9050919050565b60008115159050919050565b600073ffffffffffffffffffffffffffffffffffffffff82169050919050565b6000819050919050565b60005b8381101561289c578082015181840152602081019050612881565b838111156128ab576000848401525b50505050565b6000601f19601f8301169050919050565b6128cb81612836565b81146128d657600080fd5b50565b6128e281612848565b81146128ed57600080fd5b50565b6128f981612874565b811461290457600080fd5b5056fea365627a7a72315820e771f531e56f06e0acb2384d00f579b2e8a91b8c26ea782ed6fc2a8c552bce0c6c6578706572696d656e74616cf564736f6c63430005100040",
  "linkReferences": {},
  "deployedLinkReferences": {}
}