{
  "_format": "hh-sol-artifact-1",
  "contractName": "IdleBarnBridge",
  "sourceName": "contracts/wrappers/IdleBarnBridge.sol",
  "abi": [
    {
      "anonymous": false,
      "inputs": [
        {
          "indexed": true,
          "internalType": "address",
          "name": "previousOwner",
          "type": "address"
        },
        {
          "indexed": true,
          "internalType": "address",
          "name": "newOwner",
          "type": "address"
        }
      ],
      "name": "OwnershipTransferred",
      "type": "event"
    },
    {
      "constant": true,
      "inputs": [],
      "name": "availableLiquidity",
      "outputs": [
        {
          "internalType": "uint256",
          "name": "",
          "type": "uint256"
        }
      ],
      "payable": false,
      "stateMutability": "view",
      "type": "function"
    },
    {
      "constant": true,
      "inputs": [],
      "name": "controller",
      "outputs": [
        {
          "internalType": "address",
          "name": "",
          "type": "address"
        }
      ],
      "payable": false,
      "stateMutability": "view",
      "type": "function"
    },
    {
      "constant": true,
      "inputs": [],
      "name": "getAPR",
      "outputs": [
        {
          "internalType": "uint256",
          "name": "",
          "type": "uint256"
        }
      ],
      "payable": false,
      "stateMutability": "view",
      "type": "function"
    },
    {
      "constant": true,
      "inputs": [],
      "name": "getPriceInToken",
      "outputs": [
        {
          "internalType": "uint256",
          "name": "",
          "type": "uint256"
        }
      ],
      "payable": false,
      "stateMutability": "view",
      "type": "function"
    },
    {
      "constant": true,
      "inputs": [],
      "name": "idleToken",
      "outputs": [
        {
          "internalType": "address",
          "name": "",
          "type": "address"
        }
      ],
      "payable": false,
      "stateMutability": "view",
      "type": "function"
    },
    {
      "constant": false,
      "inputs": [
        {
          "internalType": "address",
          "name": "_token",
          "type": "address"
        },
        {
          "internalType": "address",
          "name": "_idleToken",
          "type": "address"
        },
        {
          "internalType": "address",
          "name": "_usdcToken",
          "type": "address"
        }
      ],
      "name": "initialize",
      "outputs": [],
      "payable": false,
      "stateMutability": "nonpayable",
      "type": "function"
    },
    {
      "constant": true,
      "inputs": [],
      "name": "initialized",
      "outputs": [
        {
          "internalType": "bool",
          "name": "",
          "type": "bool"
        }
      ],
      "payable": false,
      "stateMutability": "view",
      "type": "function"
    },
    {
      "constant": true,
      "inputs": [],
      "name": "isOwner",
      "outputs": [
        {
          "internalType": "bool",
          "name": "",
          "type": "bool"
        }
      ],
      "payable": false,
      "stateMutability": "view",
      "type": "function"
    },
    {
      "constant": false,
      "inputs": [],
      "name": "mint",
      "outputs": [
        {
          "internalType": "uint256",
          "name": "barnBridgeJuniorCusdc",
          "type": "uint256"
        }
      ],
      "payable": false,
      "stateMutability": "nonpayable",
      "type": "function"
    },
    {
      "constant": true,
      "inputs": [
        {
          "internalType": "uint256",
          "name": "_amount",
          "type": "uint256"
        }
      ],
      "name": "nextSupplyRate",
      "outputs": [
        {
          "internalType": "uint256",
          "name": "",
          "type": "uint256"
        }
      ],
      "payable": false,
      "stateMutability": "view",
      "type": "function"
    },
    {
      "constant": true,
      "inputs": [
        {
          "internalType": "uint256[]",
          "name": "",
          "type": "uint256[]"
        }
      ],
      "name": "nextSupplyRateWithParams",
      "outputs": [
        {
          "internalType": "uint256",
          "name": "",
          "type": "uint256"
        }
      ],
      "payable": false,
      "stateMutability": "view",
      "type": "function"
    },
    {
      "constant": true,
      "inputs": [],
      "name": "owner",
      "outputs": [
        {
          "internalType": "address",
          "name": "",
          "type": "address"
        }
      ],
      "payable": false,
      "stateMutability": "view",
      "type": "function"
    },
    {
      "constant": false,
      "inputs": [
        {
          "internalType": "address",
          "name": "_account",
          "type": "address"
        }
      ],
      "name": "redeem",
      "outputs": [
        {
          "internalType": "uint256",
          "name": "tokens",
          "type": "uint256"
        }
      ],
      "payable": false,
      "stateMutability": "nonpayable",
      "type": "function"
    },
    {
      "constant": false,
      "inputs": [],
      "name": "renounceOwnership",
      "outputs": [],
      "payable": false,
      "stateMutability": "nonpayable",
      "type": "function"
    },
    {
      "constant": true,
      "inputs": [],
      "name": "token",
      "outputs": [
        {
          "internalType": "address",
          "name": "",
          "type": "address"
        }
      ],
      "payable": false,
      "stateMutability": "view",
      "type": "function"
    },
    {
      "constant": false,
      "inputs": [
        {
          "internalType": "address",
          "name": "newOwner",
          "type": "address"
        }
      ],
      "name": "transferOwnership",
      "outputs": [],
      "payable": false,
      "stateMutability": "nonpayable",
      "type": "function"
    },
    {
      "constant": true,
      "inputs": [],
      "name": "underlying",
      "outputs": [
        {
          "internalType": "address",
          "name": "",
          "type": "address"
        }
      ],
      "payable": false,
      "stateMutability": "view",
      "type": "function"
    }
  ],
  "bytecode": "0x60806040527341ab25709e0c3edf027f6099963fe9ad3ebab3a3600460006101000a81548173ffffffffffffffffffffffffffffffffffffffff021916908373ffffffffffffffffffffffffffffffffffffffff160217905550600061006961010c60201b60201c565b9050806000806101000a81548173ffffffffffffffffffffffffffffffffffffffff021916908373ffffffffffffffffffffffffffffffffffffffff1602179055508073ffffffffffffffffffffffffffffffffffffffff16600073ffffffffffffffffffffffffffffffffffffffff167f8be0079c531659141344cd1fd0a4f28419497f9722a3daafe3b4186f6b6457e060405160405180910390a350610114565b600033905090565b612a27806101236000396000f3fe608060405234801561001057600080fd5b506004361061010b5760003560e01c80638f32d59b116100a2578063c89d5b8b11610071578063c89d5b8b14610286578063ccdd0149146102a4578063f2fde38b146102d4578063f77c4791146102f0578063fc0c546a1461030e5761010b565b80638f32d59b146101ec57806393fd92191461020a57806395a2251f1461023a578063c0c53b8b1461026a5761010b565b80636f307dc3116100de5780636f307dc314610188578063715018a6146101a657806374375359146101b05780638da5cb5b146101ce5761010b565b806302bbce46146101105780631249c58b1461012e578063158ef93e1461014c5780632dd60c5e1461016a575b600080fd5b61011861032c565b604051610125919061288f565b60405180910390f35b610136610337565b604051610143919061288f565b60405180910390f35b61015461071f565b60405161016191906126c2565b60405180910390f35b610172610732565b60405161017f9190612655565b60405180910390f35b610190610758565b60405161019d9190612655565b60405180910390f35b6101ae61077e565b005b6101b8610884565b6040516101c5919061288f565b60405180910390f35b6101d6610958565b6040516101e39190612655565b60405180910390f35b6101f4610981565b60405161020191906126c2565b60405180910390f35b610224600480360361021f919081019061218f565b6109df565b604051610231919061288f565b60405180910390f35b610254600480360361024f9190810190612117565b6109ea565b604051610261919061288f565b60405180910390f35b610284600480360361027f9190810190612140565b610d66565b005b61028e6110af565b60405161029b919061288f565b60405180910390f35b6102be60048036036102b991908101906121fd565b6110b7565b6040516102cb919061288f565b60405180910390f35b6102ee60048036036102e99190810190612117565b6110c1565b005b6102f8611114565b6040516103059190612655565b60405180910390f35b61031661113a565b6040516103239190612655565b60405180910390f35b6000620f4240905090565b6000600360009054906101000a900473ffffffffffffffffffffffffffffffffffffffff1673ffffffffffffffffffffffffffffffffffffffff163373ffffffffffffffffffffffffffffffffffffffff16146103c9576040517f08c379a00000000000000000000000000000000000000000000000000000000081526004016103c09061272f565b60405180910390fd5b6000600260009054906101000a900473ffffffffffffffffffffffffffffffffffffffff1673ffffffffffffffffffffffffffffffffffffffff166370a08231306040518263ffffffff1660e01b81526004016104269190612655565b60206040518083038186803b15801561043e57600080fd5b505afa158015610452573d6000803e3d6000fd5b505050506040513d601f19601f820116820180604052506104769190810190612226565b9050600081141561048a578191505061071c565b600061049582611160565b90506104f973daa037f99d168b552c0c61b7fb64cf7819d783106000600260009054906101000a900473ffffffffffffffffffffffffffffffffffffffff1673ffffffffffffffffffffffffffffffffffffffff166114479092919063ffffffff16565b61057a73daa037f99d168b552c0c61b7fb64cf7819d783107fffffffffffffffffffffffffffffffffffffffffffffffffffffffffffffffff600260009054906101000a900473ffffffffffffffffffffffffffffffffffffffff1673ffffffffffffffffffffffffffffffffffffffff166114479092919063ffffffff16565b600160009054906101000a900473ffffffffffffffffffffffffffffffffffffffff1673ffffffffffffffffffffffffffffffffffffffff1663a4ce25a783836105cf610e10426115be90919063ffffffff16565b6040518463ffffffff1660e01b81526004016105ed939291906128aa565b600060405180830381600087803b15801561060757600080fd5b505af115801561061b573d6000803e3d6000fd5b50505050600160009054906101000a900473ffffffffffffffffffffffffffffffffffffffff1673ffffffffffffffffffffffffffffffffffffffff166370a08231306040518263ffffffff1660e01b815260040161067a9190612655565b60206040518083038186803b15801561069257600080fd5b505afa1580156106a6573d6000803e3d6000fd5b505050506040513d601f19601f820116820180604052506106ca9190810190612226565b92506107193384600160009054906101000a900473ffffffffffffffffffffffffffffffffffffffff1673ffffffffffffffffffffffffffffffffffffffff166116139092919063ffffffff16565b50505b90565b600360149054906101000a900460ff1681565b600360009054906101000a900473ffffffffffffffffffffffffffffffffffffffff1681565b600260009054906101000a900473ffffffffffffffffffffffffffffffffffffffff1681565b610786610981565b6107c5576040517f08c379a00000000000000000000000000000000000000000000000000000000081526004016107bc906127cf565b60405180910390fd5b600073ffffffffffffffffffffffffffffffffffffffff166000809054906101000a900473ffffffffffffffffffffffffffffffffffffffff1673ffffffffffffffffffffffffffffffffffffffff167f8be0079c531659141344cd1fd0a4f28419497f9722a3daafe3b4186f6b6457e060405160405180910390a360008060006101000a81548173ffffffffffffffffffffffffffffffffffffffff021916908373ffffffffffffffffffffffffffffffffffffffff160217905550565b6000600260009054906101000a900473ffffffffffffffffffffffffffffffffffffffff1673ffffffffffffffffffffffffffffffffffffffff166370a08231600160009054906101000a900473ffffffffffffffffffffffffffffffffffffffff166040518263ffffffff1660e01b81526004016109039190612655565b60206040518083038186803b15801561091b57600080fd5b505afa15801561092f573d6000803e3d6000fd5b505050506040513d601f19601f820116820180604052506109539190810190612226565b905090565b60008060009054906101000a900473ffffffffffffffffffffffffffffffffffffffff16905090565b60008060009054906101000a900473ffffffffffffffffffffffffffffffffffffffff1673ffffffffffffffffffffffffffffffffffffffff166109c36116b2565b73ffffffffffffffffffffffffffffffffffffffff1614905090565b600080905092915050565b6000600360009054906101000a900473ffffffffffffffffffffffffffffffffffffffff1673ffffffffffffffffffffffffffffffffffffffff163373ffffffffffffffffffffffffffffffffffffffff1614610a7c576040517f08c379a0000000000000000000000000000000000000000000000000000000008152600401610a739061272f565b60405180910390fd5b6000610b31600160009054906101000a900473ffffffffffffffffffffffffffffffffffffffff1673ffffffffffffffffffffffffffffffffffffffff166370a08231306040518263ffffffff1660e01b8152600401610adc9190612655565b60206040518083038186803b158015610af457600080fd5b505afa158015610b08573d6000803e3d6000fd5b505050506040513d601f19601f82011682018060405250610b2c9190810190612226565b6116ba565b9050600160009054906101000a900473ffffffffffffffffffffffffffffffffffffffff1673ffffffffffffffffffffffffffffffffffffffff1663709ef231600160009054906101000a900473ffffffffffffffffffffffffffffffffffffffff1673ffffffffffffffffffffffffffffffffffffffff166370a08231306040518263ffffffff1660e01b8152600401610bcc9190612655565b60206040518083038186803b158015610be457600080fd5b505afa158015610bf8573d6000803e3d6000fd5b505050506040513d601f19601f82011682018060405250610c1c9190810190612226565b83610c32610e10426115be90919063ffffffff16565b6040518463ffffffff1660e01b8152600401610c50939291906128aa565b600060405180830381600087803b158015610c6a57600080fd5b505af1158015610c7e573d6000803e3d6000fd5b505050506000600260009054906101000a900473ffffffffffffffffffffffffffffffffffffffff1690508073ffffffffffffffffffffffffffffffffffffffff166370a08231306040518263ffffffff1660e01b8152600401610ce29190612655565b60206040518083038186803b158015610cfa57600080fd5b505afa158015610d0e573d6000803e3d6000fd5b505050506040513d601f19601f82011682018060405250610d329190810190612226565b9250610d5f84848373ffffffffffffffffffffffffffffffffffffffff166116139092919063ffffffff16565b5050919050565b600360149054906101000a900460ff1615610db6576040517f08c379a0000000000000000000000000000000000000000000000000000000008152600401610dad906127ef565b60405180910390fd5b600073ffffffffffffffffffffffffffffffffffffffff168373ffffffffffffffffffffffffffffffffffffffff161415610e26576040517f08c379a0000000000000000000000000000000000000000000000000000000008152600401610e1d9061280f565b60405180910390fd5b82600160006101000a81548173ffffffffffffffffffffffffffffffffffffffff021916908373ffffffffffffffffffffffffffffffffffffffff160217905550610ea66040518060400160405280600881526020017f5f746f6b656e3a2000000000000000000000000000000000000000000000000081525084611b09565b8273ffffffffffffffffffffffffffffffffffffffff166316f0115b6040518163ffffffff1660e01b815260040160206040518083038186803b158015610eec57600080fd5b505afa158015610f00573d6000803e3d6000fd5b505050506040513d601f19601f82011682018060405250610f249190810190612226565b73ffffffffffffffffffffffffffffffffffffffff1663633156376040518163ffffffff1660e01b815260040160206040518083038186803b158015610f6957600080fd5b505afa158015610f7d573d6000803e3d6000fd5b505050506040513d601f19601f82011682018060405250610fa19190810190612226565b600260006101000a81548173ffffffffffffffffffffffffffffffffffffffff021916908373ffffffffffffffffffffffffffffffffffffffff16021790555081600360006101000a81548173ffffffffffffffffffffffffffffffffffffffff021916908373ffffffffffffffffffffffffffffffffffffffff16021790555061108f837fffffffffffffffffffffffffffffffffffffffffffffffffffffffffffffffff600260009054906101000a900473ffffffffffffffffffffffffffffffffffffffff1673ffffffffffffffffffffffffffffffffffffffff166114479092919063ffffffff16565b6001600360146101000a81548160ff021916908315150217905550505050565b600080905090565b6000809050919050565b6110c9610981565b611108576040517f08c379a00000000000000000000000000000000000000000000000000000000081526004016110ff906127cf565b60405180910390fd5b61111181611ba5565b50565b600460009054906101000a900473ffffffffffffffffffffffffffffffffffffffff1681565b600160009054906101000a900473ffffffffffffffffffffffffffffffffffffffff1681565b6000806112c6600160009054906101000a900473ffffffffffffffffffffffffffffffffffffffff1673ffffffffffffffffffffffffffffffffffffffff1663bbba205d6040518163ffffffff1660e01b815260040160206040518083038186803b1580156111ce57600080fd5b505afa1580156111e2573d6000803e3d6000fd5b505050506040513d601f19601f820116820180604052506112069190810190612226565b6112b8600460009054906101000a900473ffffffffffffffffffffffffffffffffffffffff1673ffffffffffffffffffffffffffffffffffffffff16634684129e6040518163ffffffff1660e01b815260040160206040518083038186803b15801561127157600080fd5b505afa158015611285573d6000803e3d6000fd5b505050506040513d601f19601f820116820180604052506112a99190810190612226565b86611cd390919063ffffffff16565b611d4390919063ffffffff16565b905061143f600160009054906101000a900473ffffffffffffffffffffffffffffffffffffffff1673ffffffffffffffffffffffffffffffffffffffff1663a035b1fe6040518163ffffffff1660e01b8152600401602060405180830381600087803b15801561133557600080fd5b505af1158015611349573d6000803e3d6000fd5b505050506040513d601f19601f8201168201806040525061136d9190810190612226565b611431600160009054906101000a900473ffffffffffffffffffffffffffffffffffffffff1673ffffffffffffffffffffffffffffffffffffffff1663bbba205d6040518163ffffffff1660e01b815260040160206040518083038186803b1580156113d857600080fd5b505afa1580156113ec573d6000803e3d6000fd5b505050506040513d601f19601f820116820180604052506114109190810190612226565b6114238588611d8d90919063ffffffff16565b611cd390919063ffffffff16565b611d4390919063ffffffff16565b915050919050565b60008114806114e0575060008373ffffffffffffffffffffffffffffffffffffffff1663dd62ed3e30856040518363ffffffff1660e01b815260040161148e929190612670565b60206040518083038186803b1580156114a657600080fd5b505afa1580156114ba573d6000803e3d6000fd5b505050506040513d601f19601f820116820180604052506114de9190810190612226565b145b61151f576040517f08c379a00000000000000000000000000000000000000000000000000000000081526004016115169061284f565b60405180910390fd5b6115b9838473ffffffffffffffffffffffffffffffffffffffff1663095ea7b3905060e01b8484604051602401611557929190612699565b604051602081830303815290604052907bffffffffffffffffffffffffffffffffffffffffffffffffffffffff19166020820180517bffffffffffffffffffffffffffffffffffffffffffffffffffffffff8381831617835250505050611dd7565b505050565b600080828401905083811015611609576040517f08c379a00000000000000000000000000000000000000000000000000000000081526004016116009061276f565b60405180910390fd5b8091505092915050565b6116ad838473ffffffffffffffffffffffffffffffffffffffff1663a9059cbb905060e01b848460405160240161164b929190612699565b604051602081830303815290604052907bffffffffffffffffffffffffffffffffffffffffffffffffffffffff19166020820180517bffffffffffffffffffffffffffffffffffffffffffffffffffffffff8381831617835250505050611dd7565b505050565b600033905090565b600080611820600160009054906101000a900473ffffffffffffffffffffffffffffffffffffffff1673ffffffffffffffffffffffffffffffffffffffff166318160ddd6040518163ffffffff1660e01b815260040160206040518083038186803b15801561172857600080fd5b505afa15801561173c573d6000803e3d6000fd5b505050506040513d601f19601f820116820180604052506117609190810190612226565b611812600160009054906101000a900473ffffffffffffffffffffffffffffffffffffffff1673ffffffffffffffffffffffffffffffffffffffff1663bbba205d6040518163ffffffff1660e01b815260040160206040518083038186803b1580156117cb57600080fd5b505afa1580156117df573d6000803e3d6000fd5b505050506040513d601f19601f820116820180604052506118039190810190612226565b86611cd390919063ffffffff16565b611d4390919063ffffffff16565b90506000611987600160009054906101000a900473ffffffffffffffffffffffffffffffffffffffff1673ffffffffffffffffffffffffffffffffffffffff1663bbba205d6040518163ffffffff1660e01b815260040160206040518083038186803b15801561188f57600080fd5b505afa1580156118a3573d6000803e3d6000fd5b505050506040513d601f19601f820116820180604052506118c79190810190612226565b61197984600160009054906101000a900473ffffffffffffffffffffffffffffffffffffffff1673ffffffffffffffffffffffffffffffffffffffff1663f7ea4adc6040518163ffffffff1660e01b815260040160206040518083038186803b15801561193357600080fd5b505afa158015611947573d6000803e3d6000fd5b505050506040513d601f19601f8201168201806040525061196b9190810190612226565b611cd390919063ffffffff16565b611d4390919063ffffffff16565b9050611b0081611af2600160009054906101000a900473ffffffffffffffffffffffffffffffffffffffff1673ffffffffffffffffffffffffffffffffffffffff1663bbba205d6040518163ffffffff1660e01b815260040160206040518083038186803b1580156119f857600080fd5b505afa158015611a0c573d6000803e3d6000fd5b505050506040513d601f19601f82011682018060405250611a309190810190612226565b611ae4600160009054906101000a900473ffffffffffffffffffffffffffffffffffffffff1673ffffffffffffffffffffffffffffffffffffffff1663a035b1fe6040518163ffffffff1660e01b8152600401602060405180830381600087803b158015611a9d57600080fd5b505af1158015611ab1573d6000803e3d6000fd5b505050506040513d601f19601f82011682018060405250611ad59190810190612226565b89611cd390919063ffffffff16565b611d4390919063ffffffff16565b611d8d90919063ffffffff16565b92505050919050565b611ba18282604051602401611b1f9291906126ff565b6040516020818303038152906040527f319af333000000000000000000000000000000000000000000000000000000007bffffffffffffffffffffffffffffffffffffffffffffffffffffffff19166020820180517bffffffffffffffffffffffffffffffffffffffffffffffffffffffff8381831617835250505050611f49565b5050565b600073ffffffffffffffffffffffffffffffffffffffff168173ffffffffffffffffffffffffffffffffffffffff161415611c15576040517f08c379a0000000000000000000000000000000000000000000000000000000008152600401611c0c9061274f565b60405180910390fd5b8073ffffffffffffffffffffffffffffffffffffffff166000809054906101000a900473ffffffffffffffffffffffffffffffffffffffff1673ffffffffffffffffffffffffffffffffffffffff167f8be0079c531659141344cd1fd0a4f28419497f9722a3daafe3b4186f6b6457e060405160405180910390a3806000806101000a81548173ffffffffffffffffffffffffffffffffffffffff021916908373ffffffffffffffffffffffffffffffffffffffff16021790555050565b600080831415611ce65760009050611d3d565b6000828402905082848281611cf757fe5b0414611d38576040517f08c379a0000000000000000000000000000000000000000000000000000000008152600401611d2f906127af565b60405180910390fd5b809150505b92915050565b6000611d8583836040518060400160405280601a81526020017f536166654d6174683a206469766973696f6e206279207a65726f000000000000815250611f72565b905092915050565b6000611dcf83836040518060400160405280601e81526020017f536166654d6174683a207375627472616374696f6e206f766572666c6f770000815250611fd3565b905092915050565b611df68273ffffffffffffffffffffffffffffffffffffffff1661202e565b611e35576040517f08c379a0000000000000000000000000000000000000000000000000000000008152600401611e2c9061286f565b60405180910390fd5b600060608373ffffffffffffffffffffffffffffffffffffffff1683604051611e5e919061263e565b6000604051808303816000865af19150503d8060008114611e9b576040519150601f19603f3d011682016040523d82523d6000602084013e611ea0565b606091505b509150915081611ee5576040517f08c379a0000000000000000000000000000000000000000000000000000000008152600401611edc9061278f565b60405180910390fd5b600081511115611f435780806020019051611f0391908101906121d4565b611f42576040517f08c379a0000000000000000000000000000000000000000000000000000000008152600401611f399061282f565b60405180910390fd5b5b50505050565b60008151905060006a636f6e736f6c652e6c6f679050602083016000808483855afa5050505050565b60008083118290611fb9576040517f08c379a0000000000000000000000000000000000000000000000000000000008152600401611fb091906126dd565b60405180910390fd5b506000838581611fc557fe5b049050809150509392505050565b600083831115829061201b576040517f08c379a000000000000000000000000000000000000000000000000000000000815260040161201291906126dd565b60405180910390fd5b5060008385039050809150509392505050565b60008060007fc5d2460186f7233c927e7db2dcc703c0e500b653ca82273b7bfad8045d85a47060001b9050833f915080821415801561207057506000801b8214155b92505050919050565b6000813590506120888161299f565b92915050565b60008083601f8401126120a057600080fd5b8235905067ffffffffffffffff8111156120b957600080fd5b6020830191508360208202830111156120d157600080fd5b9250929050565b6000815190506120e7816129b6565b92915050565b6000813590506120fc816129cd565b92915050565b600081519050612111816129cd565b92915050565b60006020828403121561212957600080fd5b600061213784828501612079565b91505092915050565b60008060006060848603121561215557600080fd5b600061216386828701612079565b935050602061217486828701612079565b925050604061218586828701612079565b9150509250925092565b600080602083850312156121a257600080fd5b600083013567ffffffffffffffff8111156121bc57600080fd5b6121c88582860161208e565b92509250509250929050565b6000602082840312156121e657600080fd5b60006121f4848285016120d8565b91505092915050565b60006020828403121561220f57600080fd5b600061221d848285016120ed565b91505092915050565b60006020828403121561223857600080fd5b600061224684828501612102565b91505092915050565b61225881612913565b82525050565b61226781612925565b82525050565b6000612278826128e1565b61228281856128f7565b935061229281856020860161295b565b80840191505092915050565b60006122a9826128ec565b6122b38185612902565b93506122c381856020860161295b565b6122cc8161298e565b840191505092915050565b60006122e4602083612902565b91507f4f776e61626c653a2063616c6c6572206973206e6f742049646c65546f6b656e6000830152602082019050919050565b6000612324602683612902565b91507f4f776e61626c653a206e6577206f776e657220697320746865207a65726f206160008301527f64647265737300000000000000000000000000000000000000000000000000006020830152604082019050919050565b600061238a601b83612902565b91507f536166654d6174683a206164646974696f6e206f766572666c6f7700000000006000830152602082019050919050565b60006123ca602083612902565b91507f5361666545524332303a206c6f772d6c6576656c2063616c6c206661696c65646000830152602082019050919050565b600061240a602183612902565b91507f536166654d6174683a206d756c7469706c69636174696f6e206f766572666c6f60008301527f77000000000000000000000000000000000000000000000000000000000000006020830152604082019050919050565b6000612470602083612902565b91507f4f776e61626c653a2063616c6c6572206973206e6f7420746865206f776e65726000830152602082019050919050565b60006124b0601383612902565b91507f416c726561647920696e697469616c697a6564000000000000000000000000006000830152602082019050919050565b60006124f0601083612902565b91507f63555344433a20616464722069732030000000000000000000000000000000006000830152602082019050919050565b6000612530602a83612902565b91507f5361666545524332303a204552433230206f7065726174696f6e20646964206e60008301527f6f742073756363656564000000000000000000000000000000000000000000006020830152604082019050919050565b6000612596603683612902565b91507f5361666545524332303a20617070726f76652066726f6d206e6f6e2d7a65726f60008301527f20746f206e6f6e2d7a65726f20616c6c6f77616e6365000000000000000000006020830152604082019050919050565b60006125fc601f83612902565b91507f5361666545524332303a2063616c6c20746f206e6f6e2d636f6e7472616374006000830152602082019050919050565b61263881612951565b82525050565b600061264a828461226d565b915081905092915050565b600060208201905061266a600083018461224f565b92915050565b6000604082019050612685600083018561224f565b612692602083018461224f565b9392505050565b60006040820190506126ae600083018561224f565b6126bb602083018461262f565b9392505050565b60006020820190506126d7600083018461225e565b92915050565b600060208201905081810360008301526126f7818461229e565b905092915050565b60006040820190508181036000830152612719818561229e565b9050612728602083018461224f565b9392505050565b60006020820190508181036000830152612748816122d7565b9050919050565b6000602082019050818103600083015261276881612317565b9050919050565b600060208201905081810360008301526127888161237d565b9050919050565b600060208201905081810360008301526127a8816123bd565b9050919050565b600060208201905081810360008301526127c8816123fd565b9050919050565b600060208201905081810360008301526127e881612463565b9050919050565b60006020820190508181036000830152612808816124a3565b9050919050565b60006020820190508181036000830152612828816124e3565b9050919050565b6000602082019050818103600083015261284881612523565b9050919050565b6000602082019050818103600083015261286881612589565b9050919050565b60006020820190508181036000830152612888816125ef565b9050919050565b60006020820190506128a4600083018461262f565b92915050565b60006060820190506128bf600083018661262f565b6128cc602083018561262f565b6128d9604083018461262f565b949350505050565b600081519050919050565b600081519050919050565b600081905092915050565b600082825260208201905092915050565b600061291e82612931565b9050919050565b60008115159050919050565b600073ffffffffffffffffffffffffffffffffffffffff82169050919050565b6000819050919050565b60005b8381101561297957808201518184015260208101905061295e565b83811115612988576000848401525b50505050565b6000601f19601f8301169050919050565b6129a881612913565b81146129b357600080fd5b50565b6129bf81612925565b81146129ca57600080fd5b50565b6129d681612951565b81146129e157600080fd5b5056fea365627a7a72315820b48ca8d193e3cbf3705d2de2d0d4c9d142e93503110b1a32ed422a443a72662f6c6578706572696d656e74616cf564736f6c63430005100040",
  "linkReferences": {},
  "deployedLinkReferences": {}
}