{
  "_format": "hh-sol-artifact-1",
  "contractName": "IdleBarnBridge",
  "sourceName": "contracts/wrappers/IdleBarnBridge.sol",
  "abi": [
    {
      "anonymous": false,
      "inputs": [
        {
          "indexed": true,
          "internalType": "address",
          "name": "previousOwner",
          "type": "address"
        },
        {
          "indexed": true,
          "internalType": "address",
          "name": "newOwner",
          "type": "address"
        }
      ],
      "name": "OwnershipTransferred",
      "type": "event"
    },
    {
      "constant": true,
      "inputs": [],
      "name": "availableLiquidity",
      "outputs": [
        {
          "internalType": "uint256",
          "name": "",
          "type": "uint256"
        }
      ],
      "payable": false,
      "stateMutability": "view",
      "type": "function"
    },
    {
      "constant": true,
      "inputs": [],
      "name": "cErc20",
      "outputs": [
        {
          "internalType": "address",
          "name": "",
          "type": "address"
        }
      ],
      "payable": false,
      "stateMutability": "view",
      "type": "function"
    },
    {
      "constant": true,
      "inputs": [],
      "name": "compoundProvider",
      "outputs": [
        {
          "internalType": "address",
          "name": "",
          "type": "address"
        }
      ],
      "payable": false,
      "stateMutability": "view",
      "type": "function"
    },
    {
      "constant": true,
      "inputs": [],
      "name": "controller",
      "outputs": [
        {
          "internalType": "address",
          "name": "",
          "type": "address"
        }
      ],
      "payable": false,
      "stateMutability": "view",
      "type": "function"
    },
    {
      "constant": true,
      "inputs": [],
      "name": "getAPR",
      "outputs": [
        {
          "internalType": "uint256",
          "name": "",
          "type": "uint256"
        }
      ],
      "payable": false,
      "stateMutability": "view",
      "type": "function"
    },
    {
      "constant": true,
      "inputs": [],
      "name": "getPriceInToken",
      "outputs": [
        {
          "internalType": "uint256",
          "name": "",
          "type": "uint256"
        }
      ],
      "payable": false,
      "stateMutability": "view",
      "type": "function"
    },
    {
      "constant": true,
      "inputs": [],
      "name": "idleToken",
      "outputs": [
        {
          "internalType": "address",
          "name": "",
          "type": "address"
        }
      ],
      "payable": false,
      "stateMutability": "view",
      "type": "function"
    },
    {
      "constant": false,
      "inputs": [
        {
          "internalType": "address",
          "name": "_token",
          "type": "address"
        },
        {
          "internalType": "address",
          "name": "_idleToken",
          "type": "address"
        }
      ],
      "name": "initialize",
      "outputs": [],
      "payable": false,
      "stateMutability": "nonpayable",
      "type": "function"
    },
    {
      "constant": true,
      "inputs": [],
      "name": "initialized",
      "outputs": [
        {
          "internalType": "bool",
          "name": "",
          "type": "bool"
        }
      ],
      "payable": false,
      "stateMutability": "view",
      "type": "function"
    },
    {
      "constant": true,
      "inputs": [],
      "name": "isOwner",
      "outputs": [
        {
          "internalType": "bool",
          "name": "",
          "type": "bool"
        }
      ],
      "payable": false,
      "stateMutability": "view",
      "type": "function"
    },
    {
      "constant": false,
      "inputs": [],
      "name": "mint",
      "outputs": [
        {
          "internalType": "uint256",
          "name": "barnBridgeJuniorCusdc",
          "type": "uint256"
        }
      ],
      "payable": false,
      "stateMutability": "nonpayable",
      "type": "function"
    },
    {
      "constant": true,
      "inputs": [
        {
          "internalType": "uint256",
          "name": "_amount",
          "type": "uint256"
        }
      ],
      "name": "nextSupplyRate",
      "outputs": [
        {
          "internalType": "uint256",
          "name": "",
          "type": "uint256"
        }
      ],
      "payable": false,
      "stateMutability": "view",
      "type": "function"
    },
    {
      "constant": true,
      "inputs": [
        {
          "internalType": "uint256[]",
          "name": "",
          "type": "uint256[]"
        }
      ],
      "name": "nextSupplyRateWithParams",
      "outputs": [
        {
          "internalType": "uint256",
          "name": "",
          "type": "uint256"
        }
      ],
      "payable": false,
      "stateMutability": "view",
      "type": "function"
    },
    {
      "constant": true,
      "inputs": [],
      "name": "owner",
      "outputs": [
        {
          "internalType": "address",
          "name": "",
          "type": "address"
        }
      ],
      "payable": false,
      "stateMutability": "view",
      "type": "function"
    },
    {
      "constant": false,
      "inputs": [
        {
          "internalType": "address",
          "name": "_account",
          "type": "address"
        }
      ],
      "name": "redeem",
      "outputs": [
        {
          "internalType": "uint256",
          "name": "tokens",
          "type": "uint256"
        }
      ],
      "payable": false,
      "stateMutability": "nonpayable",
      "type": "function"
    },
    {
      "constant": false,
      "inputs": [],
      "name": "renounceOwnership",
      "outputs": [],
      "payable": false,
      "stateMutability": "nonpayable",
      "type": "function"
    },
    {
      "constant": true,
      "inputs": [],
      "name": "token",
      "outputs": [
        {
          "internalType": "address",
          "name": "",
          "type": "address"
        }
      ],
      "payable": false,
      "stateMutability": "view",
      "type": "function"
    },
    {
      "constant": false,
      "inputs": [
        {
          "internalType": "address",
          "name": "newOwner",
          "type": "address"
        }
      ],
      "name": "transferOwnership",
      "outputs": [],
      "payable": false,
      "stateMutability": "nonpayable",
      "type": "function"
    },
    {
      "constant": true,
      "inputs": [],
      "name": "underlying",
      "outputs": [
        {
          "internalType": "address",
          "name": "",
          "type": "address"
        }
      ],
      "payable": false,
      "stateMutability": "view",
      "type": "function"
    }
  ],
  "bytecode": "0x60806040527341ab25709e0c3edf027f6099963fe9ad3ebab3a3600460006101000a81548173ffffffffffffffffffffffffffffffffffffffff021916908373ffffffffffffffffffffffffffffffffffffffff16021790555073daa037f99d168b552c0c61b7fb64cf7819d78310600560006101000a81548173ffffffffffffffffffffffffffffffffffffffff021916908373ffffffffffffffffffffffffffffffffffffffff1602179055507339aa39c021dfbae8fac545936693ac917d5e7563600660006101000a81548173ffffffffffffffffffffffffffffffffffffffff021916908373ffffffffffffffffffffffffffffffffffffffff16021790555060006101136101b660201b60201c565b9050806000806101000a81548173ffffffffffffffffffffffffffffffffffffffff021916908373ffffffffffffffffffffffffffffffffffffffff1602179055508073ffffffffffffffffffffffffffffffffffffffff16600073ffffffffffffffffffffffffffffffffffffffff167f8be0079c531659141344cd1fd0a4f28419497f9722a3daafe3b4186f6b6457e060405160405180910390a3506101be565b600033905090565b6129cb806101cd6000396000f3fe608060405234801561001057600080fd5b50600436106101215760003560e01c80638da5cb5b116100ad578063ccdd014911610071578063ccdd0149146102d8578063f2fde38b14610308578063f71e47af14610324578063f77c479114610342578063fc0c546a1461036057610121565b80638da5cb5b1461021e5780638f32d59b1461023c57806393fd92191461025a57806395a2251f1461028a578063c89d5b8b146102ba57610121565b8063485cc955116100f4578063485cc9551461019e5780636f307dc3146101ba578063715018a6146101d857806373424447146101e2578063743753591461020057610121565b806302bbce46146101265780631249c58b14610144578063158ef93e146101625780632dd60c5e14610180575b600080fd5b61012e61037e565b60405161013b9190612833565b60405180910390f35b61014c610389565b6040516101599190612833565b60405180910390f35b61016a61068e565b6040516101779190612696565b60405180910390f35b6101886106a1565b6040516101959190612629565b60405180910390f35b6101b860048036036101b39190810190612127565b6106c7565b005b6101c2610a62565b6040516101cf9190612629565b60405180910390f35b6101e0610a88565b005b6101ea610b8e565b6040516101f79190612629565b60405180910390f35b610208610bb4565b6040516102159190612833565b60405180910390f35b610226610c88565b6040516102339190612629565b60405180910390f35b610244610cb1565b6040516102519190612696565b60405180910390f35b610274600480360361026f9190810190612163565b610d0f565b6040516102819190612833565b60405180910390f35b6102a4600480360361029f91908101906120fe565b610d1a565b6040516102b19190612833565b60405180910390f35b6102c2611096565b6040516102cf9190612833565b60405180910390f35b6102f260048036036102ed91908101906121d1565b61109e565b6040516102ff9190612833565b60405180910390f35b610322600480360361031d91908101906120fe565b611147565b005b61032c61119a565b6040516103399190612629565b60405180910390f35b61034a6111c0565b6040516103579190612629565b60405180910390f35b6103686111e6565b6040516103759190612629565b60405180910390f35b6000620f4240905090565b6000600360009054906101000a900473ffffffffffffffffffffffffffffffffffffffff1673ffffffffffffffffffffffffffffffffffffffff163373ffffffffffffffffffffffffffffffffffffffff161461041b576040517f08c379a0000000000000000000000000000000000000000000000000000000008152600401610412906126d3565b60405180910390fd5b6000600260009054906101000a900473ffffffffffffffffffffffffffffffffffffffff1673ffffffffffffffffffffffffffffffffffffffff166370a08231306040518263ffffffff1660e01b81526004016104789190612629565b60206040518083038186803b15801561049057600080fd5b505afa1580156104a4573d6000803e3d6000fd5b505050506040513d601f19601f820116820180604052506104c891908101906121fa565b905060008114156104dc578191505061068b565b60006104e78261120c565b9050600160009054906101000a900473ffffffffffffffffffffffffffffffffffffffff1673ffffffffffffffffffffffffffffffffffffffff1663a4ce25a7838361053e610e10426114f390919063ffffffff16565b6040518463ffffffff1660e01b815260040161055c9392919061284e565b600060405180830381600087803b15801561057657600080fd5b505af115801561058a573d6000803e3d6000fd5b50505050600160009054906101000a900473ffffffffffffffffffffffffffffffffffffffff1673ffffffffffffffffffffffffffffffffffffffff166370a08231306040518263ffffffff1660e01b81526004016105e99190612629565b60206040518083038186803b15801561060157600080fd5b505afa158015610615573d6000803e3d6000fd5b505050506040513d601f19601f8201168201806040525061063991908101906121fa565b92506106883384600160009054906101000a900473ffffffffffffffffffffffffffffffffffffffff1673ffffffffffffffffffffffffffffffffffffffff166115489092919063ffffffff16565b50505b90565b600360149054906101000a900460ff1681565b600360009054906101000a900473ffffffffffffffffffffffffffffffffffffffff1681565b600360149054906101000a900460ff1615610717576040517f08c379a000000000000000000000000000000000000000000000000000000000815260040161070e90612793565b60405180910390fd5b600073ffffffffffffffffffffffffffffffffffffffff168273ffffffffffffffffffffffffffffffffffffffff161415610787576040517f08c379a000000000000000000000000000000000000000000000000000000000815260040161077e906127b3565b60405180910390fd5b81600160006101000a81548173ffffffffffffffffffffffffffffffffffffffff021916908373ffffffffffffffffffffffffffffffffffffffff1602179055508173ffffffffffffffffffffffffffffffffffffffff166316f0115b6040518163ffffffff1660e01b815260040160206040518083038186803b15801561080e57600080fd5b505afa158015610822573d6000803e3d6000fd5b505050506040513d601f19601f8201168201806040525061084691908101906121fa565b73ffffffffffffffffffffffffffffffffffffffff1663633156376040518163ffffffff1660e01b815260040160206040518083038186803b15801561088b57600080fd5b505afa15801561089f573d6000803e3d6000fd5b505050506040513d601f19601f820116820180604052506108c391908101906121fa565b600260006101000a81548173ffffffffffffffffffffffffffffffffffffffff021916908373ffffffffffffffffffffffffffffffffffffffff16021790555080600360006101000a81548173ffffffffffffffffffffffffffffffffffffffff021916908373ffffffffffffffffffffffffffffffffffffffff1602179055506109b4600560009054906101000a900473ffffffffffffffffffffffffffffffffffffffff166000600260009054906101000a900473ffffffffffffffffffffffffffffffffffffffff1673ffffffffffffffffffffffffffffffffffffffff166115e79092919063ffffffff16565b610a43600560009054906101000a900473ffffffffffffffffffffffffffffffffffffffff167fffffffffffffffffffffffffffffffffffffffffffffffffffffffffffffffff600260009054906101000a900473ffffffffffffffffffffffffffffffffffffffff1673ffffffffffffffffffffffffffffffffffffffff166115e79092919063ffffffff16565b6001600360146101000a81548160ff0219169083151502179055505050565b600260009054906101000a900473ffffffffffffffffffffffffffffffffffffffff1681565b610a90610cb1565b610acf576040517f08c379a0000000000000000000000000000000000000000000000000000000008152600401610ac690612773565b60405180910390fd5b600073ffffffffffffffffffffffffffffffffffffffff166000809054906101000a900473ffffffffffffffffffffffffffffffffffffffff1673ffffffffffffffffffffffffffffffffffffffff167f8be0079c531659141344cd1fd0a4f28419497f9722a3daafe3b4186f6b6457e060405160405180910390a360008060006101000a81548173ffffffffffffffffffffffffffffffffffffffff021916908373ffffffffffffffffffffffffffffffffffffffff160217905550565b600660009054906101000a900473ffffffffffffffffffffffffffffffffffffffff1681565b6000600260009054906101000a900473ffffffffffffffffffffffffffffffffffffffff1673ffffffffffffffffffffffffffffffffffffffff166370a08231600160009054906101000a900473ffffffffffffffffffffffffffffffffffffffff166040518263ffffffff1660e01b8152600401610c339190612629565b60206040518083038186803b158015610c4b57600080fd5b505afa158015610c5f573d6000803e3d6000fd5b505050506040513d601f19601f82011682018060405250610c8391908101906121fa565b905090565b60008060009054906101000a900473ffffffffffffffffffffffffffffffffffffffff16905090565b60008060009054906101000a900473ffffffffffffffffffffffffffffffffffffffff1673ffffffffffffffffffffffffffffffffffffffff16610cf361175e565b73ffffffffffffffffffffffffffffffffffffffff1614905090565b600080905092915050565b6000600360009054906101000a900473ffffffffffffffffffffffffffffffffffffffff1673ffffffffffffffffffffffffffffffffffffffff163373ffffffffffffffffffffffffffffffffffffffff1614610dac576040517f08c379a0000000000000000000000000000000000000000000000000000000008152600401610da3906126d3565b60405180910390fd5b6000610e61600160009054906101000a900473ffffffffffffffffffffffffffffffffffffffff1673ffffffffffffffffffffffffffffffffffffffff166370a08231306040518263ffffffff1660e01b8152600401610e0c9190612629565b60206040518083038186803b158015610e2457600080fd5b505afa158015610e38573d6000803e3d6000fd5b505050506040513d601f19601f82011682018060405250610e5c91908101906121fa565b611766565b9050600160009054906101000a900473ffffffffffffffffffffffffffffffffffffffff1673ffffffffffffffffffffffffffffffffffffffff1663709ef231600160009054906101000a900473ffffffffffffffffffffffffffffffffffffffff1673ffffffffffffffffffffffffffffffffffffffff166370a08231306040518263ffffffff1660e01b8152600401610efc9190612629565b60206040518083038186803b158015610f1457600080fd5b505afa158015610f28573d6000803e3d6000fd5b505050506040513d601f19601f82011682018060405250610f4c91908101906121fa565b83610f62610e10426114f390919063ffffffff16565b6040518463ffffffff1660e01b8152600401610f809392919061284e565b600060405180830381600087803b158015610f9a57600080fd5b505af1158015610fae573d6000803e3d6000fd5b505050506000600260009054906101000a900473ffffffffffffffffffffffffffffffffffffffff1690508073ffffffffffffffffffffffffffffffffffffffff166370a08231306040518263ffffffff1660e01b81526004016110129190612629565b60206040518083038186803b15801561102a57600080fd5b505afa15801561103e573d6000803e3d6000fd5b505050506040513d601f19601f8201168201806040525061106291908101906121fa565b925061108f84848373ffffffffffffffffffffffffffffffffffffffff166115489092919063ffffffff16565b5050919050565b600080905090565b6000600660009054906101000a900473ffffffffffffffffffffffffffffffffffffffff1673ffffffffffffffffffffffffffffffffffffffff1663182df0f56040518163ffffffff1660e01b815260040160206040518083038186803b15801561110857600080fd5b505afa15801561111c573d6000803e3d6000fd5b505050506040513d601f19601f8201168201806040525061114091908101906121fa565b9050919050565b61114f610cb1565b61118e576040517f08c379a000000000000000000000000000000000000000000000000000000000815260040161118590612773565b60405180910390fd5b61119781611bb5565b50565b600560009054906101000a900473ffffffffffffffffffffffffffffffffffffffff1681565b600460009054906101000a900473ffffffffffffffffffffffffffffffffffffffff1681565b600160009054906101000a900473ffffffffffffffffffffffffffffffffffffffff1681565b600080611372600160009054906101000a900473ffffffffffffffffffffffffffffffffffffffff1673ffffffffffffffffffffffffffffffffffffffff1663bbba205d6040518163ffffffff1660e01b815260040160206040518083038186803b15801561127a57600080fd5b505afa15801561128e573d6000803e3d6000fd5b505050506040513d601f19601f820116820180604052506112b291908101906121fa565b611364600460009054906101000a900473ffffffffffffffffffffffffffffffffffffffff1673ffffffffffffffffffffffffffffffffffffffff16634684129e6040518163ffffffff1660e01b815260040160206040518083038186803b15801561131d57600080fd5b505afa158015611331573d6000803e3d6000fd5b505050506040513d601f19601f8201168201806040525061135591908101906121fa565b86611ce390919063ffffffff16565b611d5390919063ffffffff16565b90506114eb600160009054906101000a900473ffffffffffffffffffffffffffffffffffffffff1673ffffffffffffffffffffffffffffffffffffffff1663a035b1fe6040518163ffffffff1660e01b8152600401602060405180830381600087803b1580156113e157600080fd5b505af11580156113f5573d6000803e3d6000fd5b505050506040513d601f19601f8201168201806040525061141991908101906121fa565b6114dd600160009054906101000a900473ffffffffffffffffffffffffffffffffffffffff1673ffffffffffffffffffffffffffffffffffffffff1663bbba205d6040518163ffffffff1660e01b815260040160206040518083038186803b15801561148457600080fd5b505afa158015611498573d6000803e3d6000fd5b505050506040513d601f19601f820116820180604052506114bc91908101906121fa565b6114cf8588611d9d90919063ffffffff16565b611ce390919063ffffffff16565b611d5390919063ffffffff16565b915050919050565b60008082840190508381101561153e576040517f08c379a000000000000000000000000000000000000000000000000000000000815260040161153590612713565b60405180910390fd5b8091505092915050565b6115e2838473ffffffffffffffffffffffffffffffffffffffff1663a9059cbb905060e01b848460405160240161158092919061266d565b604051602081830303815290604052907bffffffffffffffffffffffffffffffffffffffffffffffffffffffff19166020820180517bffffffffffffffffffffffffffffffffffffffffffffffffffffffff8381831617835250505050611de7565b505050565b6000811480611680575060008373ffffffffffffffffffffffffffffffffffffffff1663dd62ed3e30856040518363ffffffff1660e01b815260040161162e929190612644565b60206040518083038186803b15801561164657600080fd5b505afa15801561165a573d6000803e3d6000fd5b505050506040513d601f19601f8201168201806040525061167e91908101906121fa565b145b6116bf576040517f08c379a00000000000000000000000000000000000000000000000000000000081526004016116b6906127f3565b60405180910390fd5b611759838473ffffffffffffffffffffffffffffffffffffffff1663095ea7b3905060e01b84846040516024016116f792919061266d565b604051602081830303815290604052907bffffffffffffffffffffffffffffffffffffffffffffffffffffffff19166020820180517bffffffffffffffffffffffffffffffffffffffffffffffffffffffff8381831617835250505050611de7565b505050565b600033905090565b6000806118cc600160009054906101000a900473ffffffffffffffffffffffffffffffffffffffff1673ffffffffffffffffffffffffffffffffffffffff166318160ddd6040518163ffffffff1660e01b815260040160206040518083038186803b1580156117d457600080fd5b505afa1580156117e8573d6000803e3d6000fd5b505050506040513d601f19601f8201168201806040525061180c91908101906121fa565b6118be600160009054906101000a900473ffffffffffffffffffffffffffffffffffffffff1673ffffffffffffffffffffffffffffffffffffffff1663bbba205d6040518163ffffffff1660e01b815260040160206040518083038186803b15801561187757600080fd5b505afa15801561188b573d6000803e3d6000fd5b505050506040513d601f19601f820116820180604052506118af91908101906121fa565b86611ce390919063ffffffff16565b611d5390919063ffffffff16565b90506000611a33600160009054906101000a900473ffffffffffffffffffffffffffffffffffffffff1673ffffffffffffffffffffffffffffffffffffffff1663bbba205d6040518163ffffffff1660e01b815260040160206040518083038186803b15801561193b57600080fd5b505afa15801561194f573d6000803e3d6000fd5b505050506040513d601f19601f8201168201806040525061197391908101906121fa565b611a2584600160009054906101000a900473ffffffffffffffffffffffffffffffffffffffff1673ffffffffffffffffffffffffffffffffffffffff1663f7ea4adc6040518163ffffffff1660e01b815260040160206040518083038186803b1580156119df57600080fd5b505afa1580156119f3573d6000803e3d6000fd5b505050506040513d601f19601f82011682018060405250611a1791908101906121fa565b611ce390919063ffffffff16565b611d5390919063ffffffff16565b9050611bac81611b9e600160009054906101000a900473ffffffffffffffffffffffffffffffffffffffff1673ffffffffffffffffffffffffffffffffffffffff1663bbba205d6040518163ffffffff1660e01b815260040160206040518083038186803b158015611aa457600080fd5b505afa158015611ab8573d6000803e3d6000fd5b505050506040513d601f19601f82011682018060405250611adc91908101906121fa565b611b90600160009054906101000a900473ffffffffffffffffffffffffffffffffffffffff1673ffffffffffffffffffffffffffffffffffffffff1663a035b1fe6040518163ffffffff1660e01b8152600401602060405180830381600087803b158015611b4957600080fd5b505af1158015611b5d573d6000803e3d6000fd5b505050506040513d601f19601f82011682018060405250611b8191908101906121fa565b89611ce390919063ffffffff16565b611d5390919063ffffffff16565b611d9d90919063ffffffff16565b92505050919050565b600073ffffffffffffffffffffffffffffffffffffffff168173ffffffffffffffffffffffffffffffffffffffff161415611c25576040517f08c379a0000000000000000000000000000000000000000000000000000000008152600401611c1c906126f3565b60405180910390fd5b8073ffffffffffffffffffffffffffffffffffffffff166000809054906101000a900473ffffffffffffffffffffffffffffffffffffffff1673ffffffffffffffffffffffffffffffffffffffff167f8be0079c531659141344cd1fd0a4f28419497f9722a3daafe3b4186f6b6457e060405160405180910390a3806000806101000a81548173ffffffffffffffffffffffffffffffffffffffff021916908373ffffffffffffffffffffffffffffffffffffffff16021790555050565b600080831415611cf65760009050611d4d565b6000828402905082848281611d0757fe5b0414611d48576040517f08c379a0000000000000000000000000000000000000000000000000000000008152600401611d3f90612753565b60405180910390fd5b809150505b92915050565b6000611d9583836040518060400160405280601a81526020017f536166654d6174683a206469766973696f6e206279207a65726f000000000000815250611f59565b905092915050565b6000611ddf83836040518060400160405280601e81526020017f536166654d6174683a207375627472616374696f6e206f766572666c6f770000815250611fba565b905092915050565b611e068273ffffffffffffffffffffffffffffffffffffffff16612015565b611e45576040517f08c379a0000000000000000000000000000000000000000000000000000000008152600401611e3c90612813565b60405180910390fd5b600060608373ffffffffffffffffffffffffffffffffffffffff1683604051611e6e9190612612565b6000604051808303816000865af19150503d8060008114611eab576040519150601f19603f3d011682016040523d82523d6000602084013e611eb0565b606091505b509150915081611ef5576040517f08c379a0000000000000000000000000000000000000000000000000000000008152600401611eec90612733565b60405180910390fd5b600081511115611f535780806020019051611f1391908101906121a8565b611f52576040517f08c379a0000000000000000000000000000000000000000000000000000000008152600401611f49906127d3565b60405180910390fd5b5b50505050565b60008083118290611fa0576040517f08c379a0000000000000000000000000000000000000000000000000000000008152600401611f9791906126b1565b60405180910390fd5b506000838581611fac57fe5b049050809150509392505050565b6000838311158290612002576040517f08c379a0000000000000000000000000000000000000000000000000000000008152600401611ff991906126b1565b60405180910390fd5b5060008385039050809150509392505050565b60008060007fc5d2460186f7233c927e7db2dcc703c0e500b653ca82273b7bfad8045d85a47060001b9050833f915080821415801561205757506000801b8214155b92505050919050565b60008135905061206f81612943565b92915050565b60008083601f84011261208757600080fd5b8235905067ffffffffffffffff8111156120a057600080fd5b6020830191508360208202830111156120b857600080fd5b9250929050565b6000815190506120ce8161295a565b92915050565b6000813590506120e381612971565b92915050565b6000815190506120f881612971565b92915050565b60006020828403121561211057600080fd5b600061211e84828501612060565b91505092915050565b6000806040838503121561213a57600080fd5b600061214885828601612060565b925050602061215985828601612060565b9150509250929050565b6000806020838503121561217657600080fd5b600083013567ffffffffffffffff81111561219057600080fd5b61219c85828601612075565b92509250509250929050565b6000602082840312156121ba57600080fd5b60006121c8848285016120bf565b91505092915050565b6000602082840312156121e357600080fd5b60006121f1848285016120d4565b91505092915050565b60006020828403121561220c57600080fd5b600061221a848285016120e9565b91505092915050565b61222c816128b7565b82525050565b61223b816128c9565b82525050565b600061224c82612885565b612256818561289b565b93506122668185602086016128ff565b80840191505092915050565b600061227d82612890565b61228781856128a6565b93506122978185602086016128ff565b6122a081612932565b840191505092915050565b60006122b86020836128a6565b91507f4f776e61626c653a2063616c6c6572206973206e6f742049646c65546f6b656e6000830152602082019050919050565b60006122f86026836128a6565b91507f4f776e61626c653a206e6577206f776e657220697320746865207a65726f206160008301527f64647265737300000000000000000000000000000000000000000000000000006020830152604082019050919050565b600061235e601b836128a6565b91507f536166654d6174683a206164646974696f6e206f766572666c6f7700000000006000830152602082019050919050565b600061239e6020836128a6565b91507f5361666545524332303a206c6f772d6c6576656c2063616c6c206661696c65646000830152602082019050919050565b60006123de6021836128a6565b91507f536166654d6174683a206d756c7469706c69636174696f6e206f766572666c6f60008301527f77000000000000000000000000000000000000000000000000000000000000006020830152604082019050919050565b60006124446020836128a6565b91507f4f776e61626c653a2063616c6c6572206973206e6f7420746865206f776e65726000830152602082019050919050565b60006124846013836128a6565b91507f416c726561647920696e697469616c697a6564000000000000000000000000006000830152602082019050919050565b60006124c46010836128a6565b91507f63555344433a20616464722069732030000000000000000000000000000000006000830152602082019050919050565b6000612504602a836128a6565b91507f5361666545524332303a204552433230206f7065726174696f6e20646964206e60008301527f6f742073756363656564000000000000000000000000000000000000000000006020830152604082019050919050565b600061256a6036836128a6565b91507f5361666545524332303a20617070726f76652066726f6d206e6f6e2d7a65726f60008301527f20746f206e6f6e2d7a65726f20616c6c6f77616e6365000000000000000000006020830152604082019050919050565b60006125d0601f836128a6565b91507f5361666545524332303a2063616c6c20746f206e6f6e2d636f6e7472616374006000830152602082019050919050565b61260c816128f5565b82525050565b600061261e8284612241565b915081905092915050565b600060208201905061263e6000830184612223565b92915050565b60006040820190506126596000830185612223565b6126666020830184612223565b9392505050565b60006040820190506126826000830185612223565b61268f6020830184612603565b9392505050565b60006020820190506126ab6000830184612232565b92915050565b600060208201905081810360008301526126cb8184612272565b905092915050565b600060208201905081810360008301526126ec816122ab565b9050919050565b6000602082019050818103600083015261270c816122eb565b9050919050565b6000602082019050818103600083015261272c81612351565b9050919050565b6000602082019050818103600083015261274c81612391565b9050919050565b6000602082019050818103600083015261276c816123d1565b9050919050565b6000602082019050818103600083015261278c81612437565b9050919050565b600060208201905081810360008301526127ac81612477565b9050919050565b600060208201905081810360008301526127cc816124b7565b9050919050565b600060208201905081810360008301526127ec816124f7565b9050919050565b6000602082019050818103600083015261280c8161255d565b9050919050565b6000602082019050818103600083015261282c816125c3565b9050919050565b60006020820190506128486000830184612603565b92915050565b60006060820190506128636000830186612603565b6128706020830185612603565b61287d6040830184612603565b949350505050565b600081519050919050565b600081519050919050565b600081905092915050565b600082825260208201905092915050565b60006128c2826128d5565b9050919050565b60008115159050919050565b600073ffffffffffffffffffffffffffffffffffffffff82169050919050565b6000819050919050565b60005b8381101561291d578082015181840152602081019050612902565b8381111561292c576000848401525b50505050565b6000601f19601f8301169050919050565b61294c816128b7565b811461295757600080fd5b50565b612963816128c9565b811461296e57600080fd5b50565b61297a816128f5565b811461298557600080fd5b5056fea365627a7a7231582085e6441d7f69b9d881c3e1dcea353647f4ed090a651b3197fec3859fa32f2b3d6c6578706572696d656e74616cf564736f6c63430005100040",
  "linkReferences": {},
  "deployedLinkReferences": {}
}